:100000000C9461000C9473000C9473000C947300B6
:100010000C9473000C9473000C9473000C94730094
:100020000C9473000C9473000C9473000C94730084
:100030000C9473000C9473000C9473000C94730074
:100040000C948D010C9473000C9473000C94730049
:100050000C9473000C9473000C9473000C94730054
:100060000C9473000C94730000000000240027001F
:100070002A0000000000250028002B0000000000DE
:1000800023002600290004040404040404040202DA
:100090000202020203030303030301020408102007
:1000A0004080010204081020010204081020000012
:1000B0000008000201000003040700000000000027
:1000C000000011241FBECFEFD8E0DEBFCDBF21E07E
:1000D000A0E0B1E001C01D92AD31B207E1F70E948E
:1000E000D7010C9451040C940000833081F028F463
:1000F000813099F08230A1F008958730A9F08830DE
:10010000B9F08430D1F4809180008F7D03C080915C
:1001100080008F7780938000089584B58F7702C028
:1001200084B58F7D84BD08958091B0008F7703C022
:100130008091B0008F7D8093B0000895CF93DF93BE
:10014000EAEBF0E08491E6EAF0E0D491E2E9F0E055
:10015000C491CC2391F081110E947500EC2FF0E046
:10016000EE0FFF1FE458FF4FA591B491EC91ED23E2
:1001700081E090E021F480E002C080E090E0DF9137
:10018000CF9108951F93CF93DF93282F30E0F9018B
:10019000E255FF4F8491F901E656FF4FD491F901E2
:1001A000EA57FF4FC491CC23C9F0162F81110E944A
:1001B0007500EC2FF0E0EE0FFF1FEE58FF4FA591FA
:1001C000B4918FB7F894111105C09C91ED2FE09573
:1001D000E92302C0EC91ED2BEC938FBFDF91CF911F
:1001E0001F910895CF93DF9390E0FC01E656FF4FF7
:1001F0002491FC01EA57FF4F8491882361F190E03C
:10020000880F991FFC01E859FF4FC591D491FC015B
:10021000EE58FF4FA591B491611109C09FB7F894B2
:100220008881209582238883EC912E230BC0623035
:1002300061F49FB7F8943881822F80958323888357
:10024000EC912E2B2C939FBF06C08FB7F894E881BA
:100250002E2B28838FBFDF91CF9108953FB7F8945D
:100260008091050190910601A0910701B0910801CC
:1002700026B5A89B05C02F3F19F00196A11DB11D01
:100280003FBFBA2FA92F982F8827820F911DA11D3C
:10029000B11DBC01CD0142E0660F771F881F991F79
:1002A0004A95D1F708958F929F92AF92BF92CF92C5
:1002B000DF92EF92FF926B017C010E942E014B01B5
:1002C0005C01C114D104E104F104F1F00E942E019B
:1002D000DC01CB0188199909AA09BB09883E934022
:1002E000A105B10570F321E0C21AD108E108F108B7
:1002F00088EE880E83E0981EA11CB11CC114D104A5
:10030000E104F10419F7DDCFFF90EF90DF90CF907B
:10031000BF90AF909F908F9008951F920F920FB64D
:100320000F9211242F933F938F939F93AF93BF937B
:100330008091010190910201A0910301B09104010B
:100340003091000123E0230F2D3720F40196A11DE9
:10035000B11D05C026E8230F0296A11DB11D2093F3
:1003600000018093010190930201A0930301B093D7
:1003700004018091050190910601A0910701B091BF
:1003800008010196A11DB11D8093050190930601FE
:10039000A0930701B0930801BF91AF919F918F91F6
:1003A0003F912F910F900FBE0F901F90189578944A
:1003B00084B5826084BD84B5816084BD85B582606A
:1003C00085BD85B5816085BD80916E00816080931B
:1003D0006E00109281008091810082608093810084
:1003E0008091810081608093810080918000816094
:1003F000809380008091B10084608093B1008091EF
:10040000B00081608093B00080917A008460809316
:100410007A0080917A00826080937A0080917A00DD
:10042000816080937A0080917A00806880937A005E
:100430001092C10062E08CE00E94F20061E081E075
:100440000E94F20061E082E00E94F20061E083E03D
:100450000E94F20061E084E00E94F20061E085E029
:100460000E94F20061E086E00E94F20061E087E015
:100470000E94F20080E0E82E80E0F82EC1E0D0E09B
:100480000E949E00892B11F5D0931C01C0931B0183
:100490001DC061E0812F0E94C20060E087E00E94E1
:1004A000C2001F5F1730A9F768EC70E080E090E0B1
:1004B0000E9453010E949E00892B41F4D0931A019F
:1004C000C093190110921C0110921B0180911B0115
:1004D00090911C01892B81F111E0DBCF60E081E07C
:1004E0000E94C20061E082E00E94C20061E083E0FD
:1004F0000E94C20060E084E00E94C20060E085E0EB
:100500000E94C20060E086E00E94C20060E087E0D6
:100510000E94C20068EC70E080E090E00E9453010D
:100520000E949E00892B41F4D0931801C0931701BB
:1005300010921A01109219018091190190911A01DB
:10054000892B61F62EC061E081E00E94C20061E06B
:1005500082E00E94C20060E083E00E94C20061E08D
:1005600084E00E94C20061E085E00E94C20060E079
:1005700086E00E94C20061E087E00E94C20068EC51
:1005800070E080E090E00E9453010E949E00892B61
:1005900041F4D0931601C0931501109218011092E6
:1005A00017018091170190911801892B61F62EC0D7
:1005B00061E081E00E94C20061E082E00E94C2002E
:1005C00061E083E00E94C20061E084E00E94C2001A
:1005D00060E085E00E94C20060E086E00E94C20008
:1005E00061E087E00E94C20068EC70E080E090E08B
:1005F0000E9453010E949E00892B41F4D093140164
:10060000C0931301109216011092150180911501EB
:1006100090911601892B61F62EC060E081E00E9466
:10062000C20061E082E00E94C20061E083E00E94BB
:10063000C20060E084E00E94C20060E085E00E94A9
:10064000C20061E086E00E94C20061E087E00E9493
:10065000C20068EC70E080E090E00E9453010E94CC
:100660009E00892B41F4D0931201C0931101109286
:100670001401109213018091130190911401892BA0
:1006800061F62EC061E081E00E94C20060E082E07D
:100690000E94C20061E083E00E94C20061E084E049
:1006A0000E94C20060E085E00E94C20061E086E036
:1006B0000E94C20061E087E00E94C20068EC70E026
:1006C00080E090E00E9453010E949E00892B41F43B
:1006D000D0931001C0930F011092120110921101DA
:1006E0008091110190911201892B61F62EC061E079
:1006F00081E00E94C20060E082E00E94C20061E0EE
:1007000083E00E94C20061E084E00E94C20061E0D8
:1007100085E00E94C20061E086E00E94C20061E0C4
:1007200087E00E94C20068EC70E080E090E00E94E8
:1007300053010E949E00892B41F4D0930E01C09377
:100740000D011092100110920F0180910F019091F4
:100750001001892B61F62EC061E081E00E94C20089
:1007600061E082E00E94C20061E083E00E94C2007A
:1007700060E084E00E94C20060E085E00E94C20068
:1007800060E086E00E94C20060E087E00E94C20054
:1007900068EC70E080E090E00E9453010E949E00AF
:1007A000892B41F4D0930C01C0930B0110920E01E0
:1007B00010920D0180910D0190910E01892B61F62F
:1007C0002EC061E081E00E94C20061E082E00E94F0
:1007D000C20061E083E00E94C20061E084E00E9408
:1007E000C20061E085E00E94C20061E086E00E94F4
:1007F000C20061E087E00E94C20068EC70E080E027
:1008000090E00E9453010E949E00892B41F4D093F6
:100810000A01C093090110920C0110920B01809102
:100820000B0190910C01892B61F62EC061E081E0F3
:100830000E94C20061E082E00E94C20061E083E0A9
:100840000E94C20061E084E00E94C20060E085E096
:100850000E94C20061E086E00E94C20061E087E081
:100860000E94C20068EC70E080E090E00E945301BA
:100870000E949E00892B41F4D0931C01C0931B0160
:1008800010920A01109209018091090190910A01C8
:10089000892B61F6E114F10409F4F2CD0E94000005
:0608A000EFCDF894FFCF3C
:107E0000112484B714BE81FFF0D085E080938100F7
:107E100082E08093C00088E18093C10086E0809377
:107E2000C20080E18093C4008EE0C9D0259A86E02C
:107E300020E33CEF91E0309385002093840096BBD3
:107E4000B09BFECF1D9AA8958150A9F7CC24DD24C4
:107E500088248394B5E0AB2EA1E19A2EF3E0BF2EE7
:107E6000A2D0813461F49FD0082FAFD0023811F036
:107E7000013811F484E001C083E08DD089C08234E0
:107E800011F484E103C0853419F485E0A6D080C0E4
:107E9000853579F488D0E82EFF2485D0082F10E0AE
:107EA000102F00270E291F29000F111F8ED06801E7
:107EB0006FC0863521F484E090D080E0DECF843638
:107EC00009F040C070D06FD0082F6DD080E0C81688
:107ED00080E7D80618F4F601B7BEE895C0E0D1E017
:107EE00062D089930C17E1F7F0E0CF16F0E7DF06D8
:107EF00018F0F601B7BEE89568D007B600FCFDCFD4
:107F0000A601A0E0B1E02C9130E011968C91119780
:107F100090E0982F8827822B932B1296FA010C0160
:107F200087BEE89511244E5F5F4FF1E0A038BF0790
:107F300051F7F601A7BEE89507B600FCFDCF97BE46
:107F4000E89526C08437B1F42ED02DD0F82E2BD052
:107F50003CD0F601EF2C8F010F5F1F4F84911BD097
:107F6000EA94F801C1F70894C11CD11CFA94CF0C13
:107F7000D11C0EC0853739F428D08EE10CD085E9AC
:107F80000AD08FE07ACF813511F488E018D01DD067
:107F900080E101D065CF982F8091C00085FFFCCF94
:107FA0009093C60008958091C00087FFFCCF809118
:107FB000C00084FD01C0A8958091C6000895E0E648
:107FC000F0E098E1908380830895EDDF803219F02E
:107FD00088E0F5DFFFCF84E1DECF1F93182FE3DFCA
:107FE0001150E9F7F2DF1F91089580E0E8DFEE27F6
:047FF000FF270994CA
:027FFE00040479
:0400000300007E007B
:00000001FF
